:020000040800F2
:10000000680B0020DD0100087509000803090008DD
:1000100071090008B5050008C30F000800000000C2
:100020000000000000000000000000002B0C000891
:10003000B905000800000000FD0900083D0D00089A
:10004000F7010008F7010008F7010008F7010008B0
:10005000F7010008F7010008F7010008F7010008A0
:10006000F7010008F7010008F7010008F701000890
:10007000F7010008F7010008F7010008F701000880
:10008000F7010008F7010008F7010008F701000870
:10009000F7010008F7010008F7010008F701000860
:1000A000F7010008F7010008F7010008F701000850
:1000B000F7010008F7010008F7010008F701000840
:1000C000F7010008F7010008F7010008F701000830
:1000D000F7010008A10D0008F7010008F70100086A
:1000E000F7010008F7010008F7010008F701000810
:1000F000F7010008F7010008F7010008F701000800
:10010000F7010008F7010008F7010008F7010008EF
:10011000F7010008F7010008F7010008F7010008DF
:10012000F7010008F7010008F7010008F7010008CF
:1001300000F002F800F042F80AA090E8000C8244B7
:100140008344AAF10107DA4501D100F037F8AFF294
:10015000090EBAE80F0013F0010F18BFFB1A43F0A5
:1001600001031847FC0F00001C100000103A24BFC8
:1001700078C878C1FAD8520724BF30C830C144BF0C
:1001800004680C607047000000230024002500264E
:10019000103A28BF78C1FBD8520728BF30C148BFEA
:1001A0000B607047642900F0A580732900F09E81E0
:1001B000002070471FB51FBD10B510BD00F0C8F975
:1001C0001146FFF7F7FF00F057FF00F0E6F903B420
:1001D000FFF7F2FF03BC00F0F6FE0000094880477D
:1001E00009480047FEE7FEE7FEE7FEE7FEE7FEE719
:1001F000FEE7FEE7FEE7FEE704480549054A064B31
:1002000070470000410D000831010008680500201A
:10021000680B002068070020680700207047000076
:100220000FB4044910B503AA029800F063F910BC9A
:100230005DF814FB200000202DE9F0410E46044635
:10024000002020622046E168884730B3252805D089
:10025000D4E901219047206A401CF2E7E16820467A
:1002600000278847050018D0A5F14100192802D8B9
:1002700020354FF400673246294620462760FFF7B5
:1002800091FF40B1012804D0F61D26F0070608367C
:10029000D8E7361DD6E72846DAE7206ABDE8F081C0
:1002A00070B50C460546012A05D02878800600D591
:1002B000EA69002302E0012305E05B1C934202D2BD
:1002C000E05C0028F9D1A869E618C01AA861286A7C
:1002D000184428622846AFF3008004E0D5E90121E4
:1002E00014F8010B9047B442F8D32846AFF30080CE
:1002F00070BD00002DE9F041064600241068752904
:10030000314616A510D0AFF30080002802DA404233
:1003100013A507E031688A0701D512A502E0490755
:1003200004D511A5012401E0AFF3008000210A22C9
:1003300006F1240709E0B0FBF2FCB0FBF2F302FB8C
:100340001C00303078541846491C0028F3D123464D
:100350002A463046BDE8F04100F05DB800000000DC
:100360002D0000002B0000002000000010B5431CF1
:1003700002E010F8011B71B18107FAD14FF0013290
:1003800002C88C1A8C4314EAC211F9D0C01A0A06AA
:1003900003D0C01E10BDC01A10BD0A0401D0801EBB
:1003A00010BD0902FCD0401E10BD10B5203AC0F0AF
:1003B0000B80B1E81850203AA0E81850B1E8185066
:1003C000A0E81850BFF4F5AF5FEA027C24BFB1E8A3
:1003D0001850A0E8185044BF18C918C0BDE8104014
:1003E0005FEA827C24BF51F8043B40F8043B08BF1D
:1003F0007047D20728BF31F8023B48BF11F8012BE4
:1004000028BF20F8023B48BF00F8012B7047704717
:100410007047704770472DE9F0470D469946924660
:10042000044600F124080168880604D5E06921F03B
:100430001001216000E00120A84201DD471B00E01F
:100440000027A1697A1902EB0900081AA061207837
:10045000C00602D42046AFF30080002608E0D4E9AD
:1004600001211AF806009047206A401C761C206281
:100470004E45F4DB2078C0060AD52046AFF3008055
:1004800006E0D4E9012130209047206A401C206218
:10049000381EA7F10107F4DC07E0D4E9012118F8C0
:1004A00005009047206A401C2062281EA5F1010526
:1004B000F3DC2046AFF300802078000602D502204E
:1004C000BDE8F0870120FBE710B5436913B1AFF336
:1004D000008001E0FFF7E4FE012010BD127800F17A
:1004E00024010A7000224A700122EDE711684FF0E2
:1004F000FF32E9E7074B70B50D467B4400F011F879
:100500000446284600F020F810B14FF0FF3070BDCF
:10051000204670BD5F0B000001694A1C026108782B
:10052000704700B58FB0CDE9013100210591054933
:100530007944CDE9031011466846FFF77DFE0FB000
:1005400000BD0000E5FFFFFF007B00F0800070476A
:10055000754600F02BF8AE4605006946534620F07C
:100560000700854618B020B5FFF746FEBDE82040DD
:100570004FF000064FF000074FF000084FF0000B5F
:1005800021F00701AC46ACE8C009ACE8C009ACE812
:10059000C009ACE8C0098D46704710B50446AFF3FA
:1005A00000802046BDE81040FFF711BE00487047AC
:1005B0000405002000BFFEE77047000030B5044688
:1005C00004254FF4302000F06FF80546042D17D1B4
:1005D0000C48006940F002000A490861084644617D
:1005E000006940F0400008614FF4302000F05CF8F2
:1005F00005460448006941F6FD710840014908615B
:10060000284630BD0020024004200B49C96801F093
:10061000010109B101200EE00749C96801F0040198
:1006200009B1022007E00449C96801F0100109B1CD
:10063000032000E0042070470020024003480069C6
:1006400040F080000149086170470000002002402E
:1006500070B504460D460426F00200F025F8064663
:10066000042E11D10948006940F0010007490861D2
:100670002580F00200F018F806460448006941F6AB
:10068000FE71084001490861304670BD00200240FB
:1006900002480349486003484860704723016745A2
:1006A00000200240AB89EFCD00B502460423FFF7DE
:1006B000ABFF034603E0FFF7A7FF0346521E012BE3
:1006C00001D1002AF7D102B90523184600BD000068
:1006D00070B5144C144D2046FFF748FE06463146CF
:1006E00012A0FFF79DFD214616A0FFF799FDE21429
:1006F0002946204600F0FEF9284600F004F918B11A
:1007000019A0FFF78DFD0BE02846FFF72FFE0646E8
:1007100031461AA0FFF784FD29461EA0FFF780FD91
:1007200070BD000000E00008140000200A57726944
:1007300074652044617465204C656E6774683D255E
:10074000640A000057726974652044617461206115
:100750007420464C4153485F534156455F414444E1
:10076000523A2025730A0000466C617368C4DACAE5
:10077000FDBEDDCEAABFD50A000000000A526561A9
:10078000642044617465204C656E6774683D25641F
:100790000A00000052656164204461746120617444
:1007A00020415F446174653A25730A0010B586B034
:1007B000142207A101A8FFF7F8FD01A8FFF7D6FD55
:1007C00084B2224601A9074800F0A8F906B010BD7E
:1007D0004861707079204E657720596561722121DA
:1007E0002100000000E000082DE9F041024600254C
:1007F0000026002000230024002791F803C00CF0FD
:100800000F0591F803C00CF0100CBCF1000F03D0E1
:1008100091F802C04CEA050591F800C0BCF1000F48
:1008200031D0146800202BE04FF0010C0CFA00F3DB
:10083000B1F800C00CEA03069E4220D183004FF0BD
:100840000F0C0CFA03F7BC4305FA03FC4CEA040452
:1008500091F803C0BCF1280F06D14FF0010C0CFA3F
:1008600000FCC2F814C00AE091F803C0BCF1480FC4
:1008700005D14FF0010C0CFA00FCC2F810C0401C6E
:100880000828D1D31460B1F800C0BCF1FF0F34DDEB
:10089000546800202EE000F1080C4FF0010808FA1F
:1008A0000CF3B1F800C00CEA03069E4221D183008C
:1008B0004FF00F0C0CFA03F7BC4305FA03FC4CEAAB
:1008C000040491F803C0BCF1280F05D100F1080C15
:1008D00008FA0CF8C2F8148091F803C0BCF1480F74
:1008E00007D100F1080C4FF0010808FA0CF8C2F823
:1008F0001080401C0828CED35460BDE8F08101610F
:10090000704700BFFEE770B5044625462846FFF74E
:100910002DFD08B9012070BD0020FCE708B50121BC
:10092000182000F06DF84FF40050ADF800001020D2
:100930008DF8030003208DF8020069460A48FFF78E
:1009400053FF4FF400510848FFF7D9FF4FF4807070
:10095000ADF8000069460548FFF746FF202103482F
:10096000FFF7CDFF08BD000000100140000C014062
:1009700000BFFEE77047000070B5002100230F2282
:10098000C47804B3154C246804F4E064C4F5E0644E
:10099000210AC1F10403CA40447804FA03F18478BF
:1009A0001440214309010E4C0678A155047804F047
:1009B0001F050124AC4005786D11AD0005F1E0255F
:1009C000C5F8004109E0047804F01F050124AC409B
:1009D000044D0678761145F8264070BD0CED00E018
:1009E00000E400E080E100E002490143024A1160B6
:1009F000704700000000FA050CED00E070470000B1
:100A000029B1064A92690243044B9A6104E0034A01
:100A100092698243014B9A617047000000100240C6
:100A200030B500210022002400232D4D6D6805F013
:100A30000C0121B1042905D0082923D105E0294D55
:100A4000056022E0274D05601FE0254D6D6805F427
:100A50007012234D6D6805F48034022505EB924237
:100A60001CB9214D554305600BE01D4D6D6805F423
:100A700000351DB11C4D5543056002E0194D55432D
:100A8000056002E0174D056000BF00BF144D6D68A2
:100A900005F0F0010909154D6B5C0568DD40456006
:100AA0000F4D6D6805F4E061090A104D6B5C4568F7
:100AB000DD4085600A4D6D6805F46051C90A0B4D33
:100AC0006B5C4568DD40C560054D6D6805F44041CF
:100AD000890B074D6B5CC568B5FBF3F5056130BD4F
:100AE0000010024000127A0000093D00260000209C
:100AF0003600002030B503460C461546002207E0BC
:100B0000184600F008F824F812009B1C501C82B212
:100B1000AA42F5DB30BD0146088870472DE9F05F39
:100B200080468A461746B8F1006F02D333488045A5
:100B300001D3BDE8F09FFFF7ABFDA8F1006B4FEAD2
:100B40009B25CBF34809C9F50074A74200DC3C465D
:100B50004DE04FF0006101EB85208A142849FFF732
:100B6000C9FF00260BE009EB0600254931F810000B
:100B70004FF6FF71884200D003E0701C86B2A64297
:100B8000F1DB00BFA6421BDA4FF0006101EB8520CC
:100B9000FFF714FD002608E03AF8160006EB0901FD
:100BA000174A22F81100701C86B2A642F4DB4FF0FF
:100BB000006101EB85208A14114900F023F804E05C
:100BC00022465146404600F01DF8A74200D10FE0F2
:100BD0006D1C4FF000090AEB440AA044381B87B291
:100BE000B7F5007F02DD4FF4007400E03C46B0E74B
:100BF00000BFFFF723FD00BF9BE7000000000108D6
:100C00003C0000202DE9F04105460E461746002421
:100C100007E036F814102846FFF71AFDAD1C601CDB
:100C200084B2BC42F5DBBDE8F081704710B500F03E
:100C300001F810BD0CB50020019000903348006809
:100C400040F480303149086000BF3048006800F44B
:100C5000003000900198401C0190009818B901984C
:100C6000B0F5A06FF1D12948006800F4003010B150
:100C70000120009001E0002000900098012843D15D
:100C80002348006840F010002149086008460068C9
:100C900020F0030008600846006840F00200086089
:100CA0001A48406819494860084640684860084644
:100CB000406840F4806048600846406820F47C103A
:100CC00048600846406840F4E810486008460068FC
:100CD00040F08070086000BF0C48006800F00070B1
:100CE0000028F9D00948406820F00300074948600F
:100CF0000846406840F00200486000BF0348406872
:100D000000F00C000828F9D10CBD000000100240D2
:100D100000200240042808D14FF0E021096941F089
:100D200004014FF0E022116107E04FF0E021096972
:100D300021F004014FF0E02211617047704700007C
:100D400010B51348006840F00100114908600846DA
:100D50004068104908400E494860084600680E493E
:100D600008400B4908600846006820F480200860AD
:100D70000846406820F4FE0048604FF41F00886079
:100D8000FFF754FF4FF000600449086010BD0000F9
:100D9000001002400000FFF8FFFFF6FE08ED00E043
:100DA00010B540F225511D4800F04AF810B31B4819
:100DB00000F002F9C4B21A48008800F40040C8B933
:100DC0001748008800F4804060B10A2C03D000204E
:100DD0001349088020E01248008840F40040104980
:100DE000088019E00D2C06D10D48008840F48040A1
:100DF0000B49088010E00A480088C0F30D0009493B
:100E00000C5407480088401C0549088008460088A3
:100E1000C72801DD0020088010BD00000038014017
:100E2000240000203C04002021B1828942F40052B9
:100E3000828104E082894DF6FF731A4082817047F7
:100E400070B50246002400230025002040F66A16F3
:100E5000B14200D100BFC1F3421501F01F030126CA
:100E600006FA03F3012D02D19689334006E0022DE4
:100E700002D1168A334001E0968A33400C120126D3
:100E800006FA04F41688344013B10CB1012000E0D6
:100E9000002070BDF0B50346002400260025002088
:100EA00040F66A17B94200D100BF1846C1F3421498
:100EB00001F01F06012707FA06F5012C01D10C30BD
:100EC00004E0022C01D1103000E014301AB10768A0
:100ED0002F43076002E00768AF430760F0BD0000E2
:100EE0002DE9F04786B005460E460024A24600BF15
:100EF000A1460027B08900B100BF2F462C8A4CF6CE
:100F0000FF700440F08804432C82AC894EF6F31045
:100F10000440B08831890843718908430443AC8197
:100F2000AC8A4FF6FF400440B0890443AC8201A86C
:100F3000FFF776FD1F48874202D1DDF810A001E0DF
:100F4000DDF80CA0A88900F4004040B10AEBCA000B
:100F500000EB0A1031684900B0FBF1F807E00AEB3A
:100F6000CA0000EB0A1031688900B0FBF1F8642078
:100F7000B8FBF0F004012009642101FB1089A88965
:100F800000F4004040B1322000EBC900B0FBF1F0AA
:100F900000F00700044308E0322000EB0910642150
:100FA000B0FBF1F000F00F0004432C8106B0BDE867
:100FB000F08700000038014001468888C0F308002F
:100FC000704700BFFEE7014600BF704710B56FF0E5
:100FD0000400FFF79FFE0A4800680A49B0FBF1F0E1
:100FE000094908700846007800EB4001C1EBC010C9
:100FF0004FF6FF7101EAC0000449088010BD0000EF
:101000000000002000127A001A0000201C000020BE
:101010000146114A12884A434FF0E0235A610022E8
:101020009A611A46126942F001021A6100BF4FF03C
:10103000E022106900F001021AB100F48032002AA7
:10104000F5D04FF0E022126922F001024FF0E023C8
:101050001A6100229A6170471C00002000BF054AF7
:10106000128802F04002002AF9D0C2B2014B1B1DC7
:101070001A80704700380140FFF7A8FF4FF4A060C6
:10108000FFF7B2FC4FF4E13000F01AF8FFF746FC2E
:1010900011E0FFF78BFB0020074908604FF4FA705E
:1010A000FFF7B6FFFFF714FB01200449C1F8A001C8
:1010B0006420FFF7ADFFECE7A081214200802142D0
:1010C00010B586B00446012144F20400FFF798FCF5
:1010D0004FF40070ADF8140003208DF816001820AE
:1010E0008DF8170005A91C48FFF77EFB4FF48060C0
:1010F000ADF8140004208DF8170005A91648FFF775
:1011000073FB25208DF8000003208DF801008DF879
:10111000020001208DF803006846FFF72DFC0194C2
:101120000020ADF80800ADF80A00ADF80C00ADF8ED
:1011300010000C20ADF80E0001A90848FFF7D0FE02
:10114000012240F225510548FFF7A4FE0121034882
:10115000FFF76AFE06B010BD0008014000380140EC
:1011600080110008000000203C0000006C01000815
:10117000BC1100083C0000202C0B00008801000876
:1011800000A24A0400000000000000000102030465
:101190000607080900000000000000000000000031
:1011A0000000000000000000000001020304010232
:0C11B000030406070809020406080000FA
:0400000508000131BD
:00000001FF
